{
  "contractName": "EmitOracle",
  "abi": [
    {
      "anonymous": false,
      "inputs": [],
      "name": "evError",
      "type": "event"
    },
    {
      "anonymous": false,
      "inputs": [
        {
          "indexed": false,
          "name": "",
          "type": "address"
        },
        {
          "indexed": false,
          "name": "",
          "type": "bytes32"
        }
      ],
      "name": "evStoreMessageHash",
      "type": "event"
    },
    {
      "constant": false,
      "inputs": [
        {
          "name": "msgHash",
          "type": "bytes32"
        },
        {
          "name": "v",
          "type": "uint8"
        },
        {
          "name": "r",
          "type": "bytes32"
        },
        {
          "name": "s",
          "type": "bytes32"
        }
      ],
      "name": "storeMessageHash",
      "outputs": [],
      "payable": false,
      "stateMutability": "nonpayable",
      "type": "function"
    }
  ],
  "bytecode": "0x608060405234801561001057600080fd5b506102a8806100206000396000f3fe608060405234801561001057600080fd5b506004361061002b5760003560e01c806380208f9214610030575b600080fd5b61007d6004803603608081101561004657600080fd5b8101908080359060200190929190803560ff169060200190929190803590602001909291908035906020019092919050505061007f565b005b60606040518060400160405280601c81526020017f19457468657265756d205369676e6564204d6573736167653a0a3332000000008152509050600081866040516020018083805190602001908083835b602083106100f357805182526020820191506020810190506020830392506100d0565b6001836020036101000a03801982511681845116808217855250505050505090500182815260200192505050604051602081830303815290604052805190602001209050600060018287878760405160008152602001604052604051808581526020018460ff1660ff1681526020018381526020018281526020019450505050506020604051602081039080840390855afa158015610196573d6000803e3d6000fd5b5050506020604051035190503373ffffffffffffffffffffffffffffffffffffffff168173ffffffffffffffffffffffffffffffffffffffff161415610246577f7dbedf196038ad1a3c842579d950a51ef7d555f92d7d2b1be9533d753a6839e68188604051808373ffffffffffffffffffffffffffffffffffffffff1673ffffffffffffffffffffffffffffffffffffffff1681526020018281526020019250505060405180910390a1610273565b7f22bd3ee5b1ac540a0e92bb3c4e649f7e3a0acfa0ff7c2d89dce20c0125b8679360405160405180910390a15b5050505050505056fea165627a7a72305820892044179119f6beb127a398a70e6efa2988e2fcdae7b54053e9b2ff609275c10029",
  "source": "pragma solidity >=0.5.0 <0.6.0;\n\ncontract EmitOracle {\n    event evError();\n    event evStoreMessageHash(address, bytes32);\n    function storeMessageHash(\n            bytes32 msgHash,\n            uint8 v,\n            bytes32 r,\n            bytes32 s)\n        external\n    {\n        bytes memory garbagePrefix = \"\\x19Ethereum Signed Message:\\n32\";\n        bytes32 hash = keccak256(\n            abi.encodePacked(\n                garbagePrefix,\n                msgHash));\n        address addr = ecrecover(hash, v, r, s);\n        //emit evRecoveredAddress(addr);\n        if (addr == msg.sender) {\n            emit evStoreMessageHash(addr, msgHash);\n        } else {\n            emit evError();\n        }\n    }\n}\n",
  "sourcePath": "/home/hajime/git/Oracletest/contracts/EmitOracle.sol",
  "compiler": {
    "name": "solc",
    "version": "0.5.8+commit.23d335f2.Emscripten.clang"
  },
  "schemaVersion": "3.0.19",
  "updatedAt": "2019-11-16T07:47:14.469Z",
  "networkType": "ethereum",
  "devdoc": {
    "methods": {}
  },
  "userdoc": {
    "methods": {}
  }
}